:100000000C94BF040C94DC040C94DC040C94DC040D
:100010000C94DC040C94DC040C94DC040C94DC04E0
:100020000C94DC040C94DC040C94912F0C9463303D
:100030000C94DC250C94DC040C94DC040C94DC049F
:100040000C94DC040C94DC040C94DC040C94DC04B0
:100050000C94DC040C9444260C94DC040C94DC0416
:100060000C94DC040C94DC040C94DC040C94DC0490
:100070000C94DC040C94DC040C94DC040C94DC0480
:100080000C94DC040C94DC040C94DC040C94DC0470
:100090000C94DC040C94DC040C94DC040C94DC0460
:1000A0000C94DC040C94DC040C94DC04340537055B
:1000B0003A053D054005430546056F0874087E086E
:1000C000720877087C087A08EC09EE09F909F0094A
:1000D000F209F409F609F809FB09FD09FF090A0A02
:1000E000010A030A050A070A090A0C0A331B331B13
:1000F000651B651B9C1BBC1B251D831DFE1B831DD7
:10010000AB1CAB1C1C1D831D831D7D1DB81CB81CA6
:10011000B81CB81CB81CB81CB81CB81CB81CB81C3F
:10012000B81CB81CB81CB81CB81CB81CC91CD61C00
:10013000DD1CE41CEE1C0E1E0E1E201E201E171EB3
:10014000201E201E201E0E1E0E1E1C1E201E201EE7
:100150001C1ED030F730E931F730E93143316631D8
:10016000E931BC31CB3107634236B79BD8A71A3986
:10017000685618AEBAAB558C1D3CB7CC5763BD6DF5
:10018000EDFD753EF6177231BF000000803F05A8F7
:100190004CCDB2D44EB93836A9020C50B9918688EC
:1001A000083CA6AAAA2ABE000000803F6572676FBD
:1001B000646F785F657A2F373434303762646561F5
:1001C0003364353538663064626139204020302E22
:1001D000362E3230332D392D676434366433302D6A
:1001E0006469727479000000F0A12E0039002B00C0
:1001F000E100035800001E00140004621D003400DA
:100200004A621F001A0016431B00530028002000FA
:10021000086807440600175C2A00210015000961E0
:100220001900185CE100220017000A6405000000B4
:100230002B61A9003D000000195C0000E200AA004B
:100240003D00000037000000296123001C000B6402
:10025000110000004C64240018000D6110005200D1
:10026000E00225000C680E42360051002C002600EA
:1002700012000F4137002F002B622700130033625A
:10028000380030004D682D00310034000258055808
:1002900000002900010001000100010000003A00F7
:1002A000210236623502010001003B002F002602C8
:1002B0002F02010001003C00300027023002010043
:1002C00001003D00240237003500010001003E001E
:1002D000230231021E0200000100010001000000A3
:1002E0000100000001000100010000000100000009
:1002F00001003F0044000100010000000100400037
:100300004500347101000100010041000100340288
:100310000100010001004200010001000100010094
:100320000100430001003802010001000100440007
:100330004500010001000100000001000100010072
:100340000100010000000100290004011D0101005D
:1003500001000100F600F2001B010100FB0001009A
:10036000F000F10006010100B6000100F500F30005
:100370001901010001000100F900FA00A8000000C5
:1003800001000100A9000000AA0000000100010016
:100390000100000001000000010001000100010057
:1003A00001000000010001000100F4000100010053
:1003B000010001000100010001000100B70001007F
:1003C0000100F60001000100FC0001000100B30083
:1003D0000100010001000100010001000100010015
:1003E0000000010001000100010001000000010007
:1003F000010037610100010001000100010001005E
:10040000010001000100010001002E0001000100B7
:10041000010001000100276201000100010001004C
:100420000100360001000000010001000100000091
:1004300001000000010001000100000001000000B7
:10044000010001002E022D00360000000100010015
:10045000240021001E0001000100010025002200EF
:100460001F00010001000100260023002000010000
:1004700001000100250264000100010001000100EB
:100480000100010001000100000001000100010065
:100490000100010000000100010001000100010055
:1004A000010001003602296801000100010001007D
:1004B00001000100010001000100010037024C6150
:1004C0000100010001000100010001000100000025
:1004D0000100010001000000010000000100010016
:1004E00001000000010000000100010001002900DE
:1004F00001000000010001004A0050003602010026
:1005000001000100520051004C00010001000100F7
:100510004D004F00370201000100010001004C00B6
:1005200001000100010001000100010001000100C3
:1005300000000100010001000100010000000100B5
:1005400001000100010001000100010001000100A3
:1005500001000100C95C010001000100010001006F
:10056000CA5C01000100010001000100010001005E
:100570000100010001000000C35C01000100000057
:100580000100000001000100010000000100000066
:10059000C25C01000100010001000000E05C0100FC
:1005A0000100010001000100010001000100010043
:1005B00001000100C65C0100010001000100010012
:1005C000C55C010001000100010001000100010003
:1005D0000100010001000100000000000000000017
:1005E00000002A2B2800000000000000000000008E
:1005F000000000000029000000002C1E34202122F1
:1006000024342627252E362D3738271E1F20212259
:10061000232425263333362E37381F0405060708D2
:10062000090A0B0C0D0E0F101112131415161718C2
:10063000191A1B1C1D2F3130232D35040506070800
:10064000090A0B0C0D0E0F101112131415161718A2
:10065000191A1B1C1D2F3130354C00000000000002
:10066000000000000000000000000000000000008A
:100670000000000000000000000000010101010175
:100680000100010101010000000000000000000065
:100690000000000001000100010101010101010150
:1006A000010101010101010101010101010101013A
:1006B0000101010101000000010100000000000033
:1006C000000000000000000000000000000000002A
:1006D0000000000000010101010000047F3F1F64D1
:1006E0003214643214783C1E1E140A056801F000AE
:1006F000B40078005A00000000000001010101016F
:1007000001010101020202020202020202030303CA
:100710000303030303040404040404050505050599
:100720000606060606070707070808080809090954
:100730000A0A0A0A0B0B0B0C0C0C0D0D0D0E0E0FFA
:100740000F0F101011111112121313141415151686
:10075000161717181819191A1A1B1C1C1D1D1E1FF5
:100760001F20202122222324252526272728292A45
:100770002B2B2C2D2E2F2F3031323334353636376C
:1007800038393A3B3C3D3E3F40414243444647486E
:10079000494A4B4C4D4F50515253555657585A5B3E
:1007A0005C5E5F606263646667696A6C6D6E7071DF
:1007B00073747678797B7C7E8081838486888A8B4B
:1007C0008D8F91929496989A9B9D9FA1A3A5A7A97E
:1007D000ABADAFB1B3B5B7B9BBBDBFC1C4C6C8CA75
:1007E000CCCFD1D3D6D8DADCDFE1E4E6E8EBEDF02C
:1007F000F2F5F7FAFCFF0403300000001603450091
:10080000720067006F0044006F0078002000450010
:100810005A00000016034500720067006F00440094
:100820006F007800200045005A000000040309040E
:1008300009023B00020100A0FA09040000010301C3
:100840000100092111010001224000070581030870
:10085000000A090401000103000000092111010040
:100860000122C0000705820320000A1201100100C6
:10087000000008EDFE071301000102030105010954
:1008800002A10185020901A1000509190129051527
:10089000002501950575018102950175038101050A
:1008A00001093009311581257F95027508810609F6
:1008B000381581257F950175088106050C0A3802D7
:1008C0001581257F950175088106C0C00501098045
:1008D000A10185031601002603001A81002A830066
:1008E000751095018100C0050C0901A10185041650
:1008F0000100269C021A01002A9C027510950181B4
:1009000000C005010906A1018505050719E029E7D1
:1009100015002501950875018102050819012905B1
:10092000950575019102950175039101050719005F
:1009300029EF1500250195F075018102C005010917
:1009400006A101050719E029E7150025019508759D
:100950000181029501750881010508190129059594
:10096000057501910295017503910105071900298B
:10097000FF150026FF00950675088100C0001124B0
:100980001FBECFEFDAE0DEBFCDBF11E0A0E0B1E0E7
:10099000E0EAF1E702C005900D92AC3DB107D9F74E
:1009A00023E0ACEDB1E001C01D92A53CB207E1F738
:1009B0000E94B32C0C94CE380C94000080B38C7041
:1009C00080BB81B3836F81BB089584B1807F84B97C
:1009D00085B1807F85B98AB1837F8AB98BB1837FE6
:1009E0008BB93E9846980895CF93E82F873090F5BD
:1009F0008091000190910101892B09F049C0CE2F0F
:100A000064E670E080E40E94750690930101809393
:100A10000001892BD1F464E670E082E10E94CC06EB
:100A20009093010180930001892B79F481E090E09B
:100A300001C0880FCA95EAF764E670E080950E94CD
:100A4000CC06909301018093000184E690E0CF9161
:100A50000C94210790E0FC013797E730F105C0F4D2
:100A6000EA5AFF4F0C948E35209A289811C0219A8B
:100A700029980EC0229A2A980BC0239A2B9808C056
:100A8000529A5A9805C0539A5B9802C03E9A46986B
:100A9000CF910895089508950C944B05CF93DF935B
:100AA0000E94B30790E090930101809300010E949F
:100AB000E5040E94DE04A1E3B2E02DED31E0EFE3B6
:100AC000F2E04EE04E0F11921D9280E090E0E901BD
:100AD000C80FD91F1882019686309105C1F72A5F89
:100AE0003F4F4E13F0CFDF91CF910C9420090E941D
:100AF000B30790E090930101809300010E94E50408
:100B00000E94DE04EFE3F2E08EE08E0F11928E136E
:100B1000FDCF0895CF93DF93E62FF0E0EF5CFD4F1C
:100B200040814827808386E0689FF0011124E352CA
:100B3000FE4F20E030E080E061E070E050E0AAE0AD
:100B4000B22F9081992319F09150908307C0EB0147
:100B5000022E01C0CC0F0A94EAF78C2BEA0102C0E6
:100B6000D595C795BA95E2F7C0FDA0832F5F3F4F9B
:100B700031962630310521F7DF91CF910895CF933B
:100B8000DF93D82F873008F040C08091000190910A
:100B90000101892B09F042C064E670E080E40E9404
:100BA00075069093010180930001892B11F0C0E03C
:100BB00027C064E670E083E10E94CC0690930101B7
:100BC00080930001892B99F764E670E081E40E942C
:100BD00075069093010180930001892B41F784E60B
:100BE00090E00E94FC0697FF05C09093010180935E
:100BF0000001DDCFC82FC0951092010110920001B5
:100C000084E690E00E9421070AC09FB1CFB1C07F67
:100C1000C695C6959370C92BC09501C0C0E06D2FD5
:100C20008C2F0E948A05282F2095ED2FF0E0E15CA3
:100C3000FD4F908192238C23892BDF91CF910895D2
:100C4000EF92FF920F931F93CF93DF938091000158
:100C500090910101892B91F08091DC018F5F80934D
:100C6000DC0181110BC00E94B30790E09093010159
:100C700080930001892B11F40E9445078FE3E82E31
:100C800082E0F82E06E412E0C0E08C2F0E94F4040B
:100C9000D7E0DC0F8D2F0E94F4048C2F0E94BF053B
:100CA000F70181937F018D2F0E94BF05F801819389
:100CB0008F010E94E504CF5FC73039F70E942809F1
:100CC00081E0DF91CF911F910F91FF90EF900895F8
:100CD000E82FF0E0E15CFD4F8081089508951092C7
:100CE000B9008CE08093B8000895EF92FF920F93C3
:100CF0001F93CF93DF93182FEB011092BC0084EA6F
:100D00008093BC000E940E267C019091BC0097FD50
:100D10000EC0CF3F8FEFD807C1F30E940E268E1969
:100D20009F098C179D0788F38EEF9FEF2EC090913F
:100D3000B900987F983041F09091B900987F903138
:100D400019F08FEF9FEF21C01093BB0084E88093D0
:100D5000BC000E940E268C019091BC0097FD0CC037
:100D6000CF3F8FEFD807C1F30E940E26801B910B57
:100D70008C179D0788F3D8CF8091B900887F883180
:100D800011F08034F1F680E090E0DF91CF911F9177
:100D90000F91FF90EF9008950F931F93CF93DF93E0
:100DA000EB018093BB0084E88093BC000E940E2678
:100DB0008C019091BC0097FD0EC0CF3F8FEFD807FC
:100DC000C1F30E940E26801B910B8C179D0788F3A0
:100DD0008EEF9FEF0CC02091B900287F81E090E05A
:100DE000283211F480E090E0919581959109DF918E
:100DF000CF911F910F9108950F931F93CF93DF937E
:100E0000EC0184E88093BC000E940E268C01909136
:100E1000BC0097FD0EC0CF3F8FEFD807C1F30E94F3
:100E20000E26801B910B8C179D0788F38EEF9FEF8A
:100E300003C08091BB0090E0DF91CF911F910F9193
:100E400008950F931F93CF93DF93EC0184E9809370
:100E5000BC000E940E268C019091BC0094FF0EC035
:100E6000CF3F8FEFD807C1F30E940E26801B910B56
:100E70008C179D0788F38EEF9FEF02C080E090E013
:100E8000DF91CF911F910F91089556985E98259804
:100E90002D9826982E9827982F988FEF90E0909372
:100EA00089008093880090938B0080938A009093B0
:100EB0008D0080938C00259A2D9A2FEF80E792E089
:100EC000215080409040E1F700C00000269A2E9A01
:100ED0002FEF80E792E0215080409040E1F700C082
:100EE0000000279A2F9A2FEF80E792E02150804050
:100EF0009040E1F700C0000025982D982FEF80E783
:100F000092E0215080409040E1F700C00000269818
:100F10002E982FEF80E792E0215080409040E1F73B
:100F200000C0000027982F9856985E9825982D9815
:100F300026982E9827982F98089589EA8093800004
:100F400089E08093810024982C983F988AB18F7C07
:100F50008AB96E98479A8BB180638BB9769A0E9452
:100F600045070C944A0580E290E09093010180933C
:100F7000000180914D0281110EC00E946F0681E038
:100F800080934D022FEF83ED90E3215080409040FD
:100F9000E1F700C0000064E670E080E40E9475069E
:100FA0009093010180930001892B09F050C064E601
:100FB00070E080E00E94CC069093010180930001D4
:100FC000892B09F044C064E670E080E00E94CC0602
:100FD0009093010180930001892BC9F564E670E0CC
:100FE0008FE30E94CC069093010180930001892B2E
:100FF00071F584E690E00E94210764E670E080E4E9
:101000000E9475069093010180930001892BF9F4E9
:1010100064E670E08CE00E94CC069093010180931E
:101020000001892BA1F464E670E080E00E94CC0608
:101030009093010180930001892B49F464E670E0EC
:101040008FE30E94CC06909301018093000184E617
:1010500090E00E942107809100010895611108C06D
:10106000FC018281882321F08CEA91E00E941D0915
:1010700080E090E008958F3D2CE5920721F0803EBE
:101080009C4541F010C0FB018281882369F00E94D9
:10109000FA2407C0FB018281882331F081E00E949D
:1010A000441280E0089581E00895CF92DF92EF929C
:1010B000FF926B017C010E943C2456985E98259813
:1010C0002D9826982E9827982F9890E0FC0131971C
:1010D000E730F105A8F4E35AFF4F0C948E35259ABA
:1010E0002D9A0EC0259A2D9A269A2E9A09C0259AD5
:1010F0002D9A04C0259A2D9A269A2E9A279A2F9ACD
:10110000C701B601FF90EF90DF90CF90089581E086
:1011100008950C943B08CF93282F30E0F901E65254
:10112000FA4FC491F901E65AF94F2491222359F05C
:1011300081EE0E9450198C2F0E9450198C2F0E9412
:10114000891A81EE04C08C2F0E9450198C2FCF91E8
:101150000C94891AFF920F931F93CF93DF93EC01A6
:10116000F62E8881882331F18E010F5F1F4F813069
:1011700031F4C9818C2F0E9450198C2F0AC0823003
:1011800029F489810E945019E80108C0833021F4B4
:1011900089810E94891AF8CF0E948B0821968F2D91
:1011A0008823F9F2EFE9FFE03197F1F700C0000082
:1011B0008150F6CFDF91CF911F910F91FF9008954D
:1011C00060E00C94AA080F931F93CF93DF93EC0178
:1011D000062FFE018491882359F19E012F5F3F4F16
:1011E000813041F4E901F9011491812F0E945019D5
:1011F000812F0DC0823031F4E901F90184910E9400
:1012000050190AC0833031F4E901F90184910E9438
:10121000891A02C00E948B082196802F8823C9F268
:10122000EFE9FFE03197F1F700C000008150F6CF01
:10123000DF91CF911F910F91089560E00C94E30826
:101240000E948C24811102C00E94FA240C949D07F4
:101250000C944C05282F2F7041F0822F90E02A30FB
:1012600010F44D9608950697089587E290E008954A
:1012700008950C9438090C94390908950E94FC1DB6
:101280000E943D092FEF84E39CE021508040904074
:10129000E1F700C000000C946A26FF920F931F93A1
:1012A000CF93DF938C01FC01C081D18180919D029D
:1012B000811113C08281882349F0CE010E942F231F
:1012C000F82E682FCE010E94D22204C0CE010E94C7
:1012D0000223F82EBE018F2D04C0CE010E942F23C1
:1012E000BE010E94130CEC01B8010E9489088823FA
:1012F00009F491C2B801CE010E948A0E882309F434
:101300008AC2B801CE010E943617882309F483C22D
:10131000CC3CFCE5DF0741F4F8018281882309F425
:101320007AC20E94501077C2CD3C8CE5D80708F0F5
:101330001EC1C43C9CE5D90761F4F8018281882371
:1013400009F469C20E9400248272E1F40E945112E1
:1013500062C2C53CECE5DE0708F0C7C0C531FCE55C
:10136000DF0798F0C23CFCE5DF0709F48CC008F405
:1013700092C0F8018281882309F44DC20E940024A2
:10138000827221F70E94471246C2C2308CE5D8070C
:1013900008F452C0F8018281882309F459C00E94E0
:1013A0008C24811102C00E94FA240E949F2490E0A4
:1013B0009093B7038093B603FE01E350FC45E231FE
:1013C000F10530F4EC59FF4F8091B6030C948E3543
:1013D0008091B603816027C0826025C0846023C0ED
:1013E000806121C080621FC080641DC080681BC0F6
:1013F0008460886018C08E7F16C08D7F14C08B7F7C
:1014000012C08F7E10C08F7D0EC08F7B0CC08F7777
:101410000AC08B7F877F07C087FB222720F991E0D6
:10142000922790FB87F98093B6038091B6030E94C0
:10143000A3240E94FC1DEFC1C1159CE5D90781F0D2
:10144000C130DC45A9F081E08093530280935402BF
:10145000C801DF91CF911F910F91FF900C948708E5
:10146000F8018281882309F4D6C10E943E09D3C1C4
:10147000F8018281882309F4CEC180913C03816008
:1014800080933C03C8C1F8018281882309F4C3C159
:101490000E94AF12C0C1C631DC45A9F60E940024EB
:1014A000282FF80182814091120150911301882365
:1014B00079F02A7A91E009F490E090934E0291112C
:1014C00002C069E201C065E3CA010E9461250AC049
:1014D00080914E02811102C069E201C065E3CA0138
:1014E0000E946C250E94CD2396C1F8018281C83CE0
:1014F000FCE5DF0731F4882309F48DC10E94B311A4
:101500008AC1C93C9CE5D907C8F4C63CECE5DE07B6
:1015100031F4882309F47FC10E9482117CC1C73C49
:10152000DC4530F4882309F476C10E946A1173C146
:10153000882309F470C10E94A1116DC1CA3C9CE5C9
:10154000D90731F4882309F466C10E94E01163C110
:10155000CB3CDC4530F4882309F45DC10E94C51101
:101560005AC1882309F457C10E943B1054C1C43D9D
:10157000FCE5DF07C1F4F8018281882309F44BC13F
:101580000E942D10693171058105910540F00E947E
:101590002D10623271058105910508F4F3CE89E1C1
:1015A0000E94441238C1C53D8CE5D80708F086C0BA
:1015B000F8018281C03DFCE5DF07A1F4882309F42E
:1015C0002AC10E942D10693071058105910540F0F6
:1015D0000E942D106E3071058105910508F4D2CE60
:1015E00089E0DECFC13D9CE5D907A0F5CE3CECE516
:1015F000DE07A1F4882309F40EC10E942D10623089
:1016000071058105910540F00E942D10653071052E
:101610008105910508F4B6CE82E0C2CFCF3CDC450F
:1016200028F4882309F4F7C081E0BACF882309F4AD
:10163000F2C00E942D10663071058105910540F0C1
:101640000E942D10683071058105910508F49ACE2D
:1016500086E0A6CFC23D9CE5D907A1F4882309F412
:10166000DAC00E942D10653171058105910540F0A9
:101670000E942D10673171058105910508F482CE15
:1016800085E18ECFC33DDC45A0F4882309F4C3C0B7
:101690000E942D106F3071058105910540F00E9468
:1016A0002D10643171058105910508F46BCE8FE032
:1016B00077CF882309F4AFC088E172CFC83DFCE53D
:1016C000DF0759F5F8018281882361F010925402F6
:1016D0000E940E26909352028093510280E20E9453
:1016E000F11A99C080915402882321F080E20E946F
:1016F000F81A91C080915102909152020E941A26CC
:10170000893B910598F780E20E94F81A88E20E94CE
:10171000501988E20E94891A7EC0C93D8CE5D8071D
:1017200008F058C0F8018281C63DFCE5DF0751F59D
:10173000882351F0109253020E940E26909350027B
:1017400080934F0282E0CBCF0E94002485FF05C02A
:1017500081E080935302809354028091530281115F
:101760000FC080914F02909150020E941A26893B2F
:10177000910530F486E20E94501986E20E94891A8F
:1017800082E0B5CFC73DDC4528F4882309F443C087
:1017900083E206CF81119ACF0E94002481FF05C009
:1017A00081E080935302809354028091540281110E
:1017B0009DCF80915102909152020E941A26893B3E
:1017C000910508F093CF87E20E94501987E20E94AA
:1017D000891A8CCFCC3DECE5DE0741F4F80182811B
:1017E0008823C9F082E00E94542D15C0CD3DFCE550
:1017F000DF0739F4F8018281882369F00E94FA2416
:101800000AC0CB3DDC4509F01ECEF8018281882359
:1018100011F080E0E8CF80E0DF91CF911F910F9130
:10182000FF900895089596E0799FF001112494E5C2
:10183000899FE00DF11D1124E60FF11DEE0FFF1F32
:10184000E651FE4F859194910895880F991FFC01F0
:10185000EA51FE4F859194910895CF93DF930E94B2
:10186000130C0E94EA0DEC01811520E59207F0F5BA
:10187000811530E4930708F029C1883E910500F5F1
:10188000803E910508F0A2C1883A910570F4853A2E
:10189000910508F0A3C08130910509F497C108F4BF
:1018A00048C1049708F092C144C18F3B910508F4E8
:1018B000A0C0803C910508F43CC1805C9109F8C04F
:1018C0008115904258F4C11581E0D80708F07EC117
:1018D000C03FD10508F42DC1D06578C1C11590E392
:1018E000D90708F0E9C0CE019F70E2C0811525E557
:1018F000920708F043C0811534E5930708F0FDC056
:10190000811542E5940708F5C11581E5D80708F06F
:10191000E0C02C2F237081E090E002C0880F991F57
:101920002A95E2F79C689E0174E0369527957A9592
:10193000E1F72370922BCF70C695C69540E2C49F05
:10194000E0011124C82BD92B41C1869586959E01B3
:1019500023703327C115D34508F0C0C040E2849FEF
:10196000C0011124C1E0D0E002C0CC0FDD1F2A95D8
:10197000E2F78C2B9D2BEC01DC6828C181152AE550
:10198000920798F4811539E5930708F0C1C08115D5
:10199000964508F4B7C0C11588E5D80708F4C9C052
:1019A000DC2FCC27C06FD06A11C1C1159BE5D907C8
:1019B00008F4BFC0C1152CE5D20708F4B7C0CE01AA
:1019C00090568115904208F0B4C08D2F8F710E94FF
:1019D000670EDD27D0628F71D82BF8C0853A91054C
:1019E00009F4AAC0863A910509F0A9C0C2E8D0E47A
:1019F000EDC0883A910509F4A5C0893A910509F42A
:101A0000A4C08A3A910509F4A3C08B3A910509F460
:101A1000A2C08C3A910509F4A1C08B3B910509F451
:101A2000A0C08C3B910509F49FC08D3A910509F443
:101A30009EC0803B910509F49DC08E3A910509F442
:101A40009CC08F3A910509F49BC0813B910509F434
:101A50009AC0823B910509F499C0833B910509F432
:101A600098C0843B910509F497C0853B910509F422
:101A700096C0863B910509F495C0873B910509F412
:101A800094C0883B910509F493C0893B910509F402
:101A900092C08D3B910509F491C08E3B910509F4EC
:101AA00090C08A3B910509F48FC0C0E0D4E48EC099
:101AB0000E94250CEC018AC0CE019927D3FF03C0F8
:101AC000EC01D86C83C0EC01D06C80C0DF70D06AB0
:101AD0007DC0DC2FCC27C16FD06A78C040E2849FE4
:101AE000C0011124C1E0D0E002C0CC0FDD1F2A9557
:101AF000E2F7C82BD92BDA6869C0D82FCC27C46F7E
:101B0000D06A64C0CF71DD27DC2FCC27D0625EC0E5
:101B10008F70806E90E0906A24E0D695C7952A95E4
:101B2000E1F7CF709C013C2BE90150C0DD27D06666
:101B30004DC0C0E0D0E04AC0C1E8D0E447C0C3E82F
:101B4000D0E444C0C2EED4E441C0C9EED4E43EC007
:101B5000CAEED4E43BC0C5EBD4E438C0C6EBD4E451
:101B600035C0C3EBD4E432C0C4EBD4E42FC0C7EB20
:101B7000D4E42CC0CCECD4E429C0CDECD4E426C011
:101B8000C3E8D5E423C0CAE8D5E420C0C2E9D5E45F
:101B90001DC0C4E9D5E41AC0C1E2D6E417C0C3E24F
:101BA000D6E414C0C4E2D6E411C0C5E2D6E40EC047
:101BB000C6E2D6E40BC0C7E2D6E408C0CFE6D4E460
:101BC00005C0C0E7D4E402C0CAE2D6E4CE01DF918A
:101BD000CF9108958238910549F1B0F48133910590
:101BE00009F458C048F48932910509F44EC08A328C
:101BF000910509F454C008958533910509F440C056
:101C00008933910599F00895833E910529F138F4BF
:101C1000803E910591F0823E9105A1F00895863EA7
:101C20009105F9F0873E910531F108952091B603B1
:101C300020FD3AC021FD38C008958091B60380FD93
:101C400035C032C08091B60382FF32C08091B603A6
:101C500084FD30C083EE39C08091B60382FD28C078
:101C6000F5CF8091B60383FF27C08091B60384FD32
:101C700021C087EE2AC08091B60383FD1DC0F5CF39
:101C80008091B60385FD1AC01BC08091B60385FD07
:101C900017C014C08091B60386FD14C015C0809192
:101CA000B60386FD11C00EC080EE0FC089E30DC0E3
:101CB00082EE0BC080E009C086EE07C089E205C055
:101CC00085E303C08AE201C081E390E0089590912A
:101CD000B60392FF0DC0282F2871283019F4877F92
:101CE000846006C0282F2471243011F48B7F886013
:101CF00093FF0DC0282F2871283119F4877E846145
:101D000006C0282F2471243111F48B7E886194FD44
:101D1000877E0895CF93DF93813020E8920778F093
:101D2000FB012281222359F0EC010E94A30E0E94A4
:101D3000B10ECE019F770E94790F0E942D0F81E096
:101D4000DF91CF91089580915502811109C08CE0F7
:101D500090E00E944F388093560281E080935502B4
:101D60000895E0911201F0911301808180936E0338
:101D700081FF03C081EE0E94891A80916E0385FF66
:101D800003C085EE0E94891A80916E0380FF03C014
:101D900080EE0E94891A80916E0384FF03C084EE56
:101DA0000E94891A80916E0382FF03C082EE0E9416
:101DB000891A80916E0386FF03C086EE0E94891AFD
:101DC00080916E0383FF03C083EE0E94891A809185
:101DD0006E0387FF03C087EE0E94891A8091560226
:101DE000823001F1A8F48823C9F0813079F580EEC2
:101DF0000E94501981EE0E94501988E10E945019EA
:101E000088E10E94891A81EE0E94891A80EE1CC026
:101E1000843081F08530D1F486EE01C082EE0E94DC
:101E2000501914C082EE0E94501987E50E94501983
:101E300087E50AC086EE0E94501986EE0E94891A34
:101E400088E10E94501988E10E94891A8FE39CE979
:101E50000197F1F700C0000008958091560281308B
:101E600049F030F0823021F0853051F486EE06C022
:101E700082EE04C08CE20E9450198CE20E94891A02
:101E800080916E0381FF03C081EE0E945019809102
:101E90006E0385FF03C085EE0E94501980916E038A
:101EA00080FF03C080EE0E94501980916E0384FF72
:101EB00003C084EE0E94501980916E0382FF03C01C
:101EC00082EE0E94501980916E0386FF03C086EE59
:101ED0000E94501980916E0383FF03C083EE0E941D
:101EE000501980916E0387FF03C087EE0C94501940
:101EF0000895EF92FF921F93CF93DF937C01CCE084
:101F0000D0E097010C2E02C0369527950A94E2F78F
:101F1000122F1F70812F0E942A090E945019812FB1
:101F20000E942A090E94891A2497CC3F8FEFD80774
:101F300041F7DF91CF911F91FF90EF900895EF92BD
:101F4000FF920F931F93CF93DF93E901662309F468
:101F50004BC0242F30E0EFEFF0E0E61BF109B901B0
:101F6000E69F9001E79F300DF69F300D1124232F3F
:101F70008B01031B11095CE3E52EF12CB7010E94D4
:101F80006635FB01BC01069FC001079F900D169F9F
:101F9000900D1124B7010E946635E230F105B1F0D1
:101FA00040F4309779F0319711F5832F242F461B99
:101FB00021C0E430F105A1F068F03597C1F4842F19
:101FC000861B18C0832F262F230F14C0862F830F44
:101FD000E42F03C0E42FE61B842F432F2E2F0AC0CB
:101FE000842F462F430F06C0842F242F03C080E088
:101FF00020E040E0E42FF0E0EA50F94F4491E22F76
:10200000F0E0EA50F94F9491E82FF0E0EA50F94FF0
:10201000E49149839883EA83DF91CF911F910F91D7
:10202000FF90EF90089588E090E00C945738AB0152
:10203000BC0188E090E00C947538EFE6F3E083E0B3
:102040008083109270038FEF828383831482608178
:102050007181828193810C94171060916F0360FFEE
:1020600006C066956F7370E080E090E0089560E0D0
:1020700070E0CB0108958091730390E00196843065
:10208000910514F083E090E08093730360916F03F7
:102090007091700380917103909172030C941710EA
:1020A0008091730390E0019797FF02C080E090E079
:1020B0008430910514F083E090E080937303609185
:1020C0006F037091700380917103909172030C946F
:1020D000171080916F0380FF06C06FE070E084E707
:1020E00093E00C946B1680E090E0FC01EC58FC4F00
:1020F00011821082128204968C339105B1F7EDCFD4
:1021000090916F0390FF0FC020E030E0F901EC5890
:10211000FC4F8183608342832C5F3F4F2C3331051A
:10212000A9F70C9469100895CF93DF9300D000D0E5
:10213000CDB7DEB720916F0320FF0AC09E012F5F4D
:102140003F4F0E949F0F4B8169818A810E948010BE
:102150000F900F900F900F90DF91CF9108955F92A5
:102160006F927F928F929F92AF92BF92CF92DF92A7
:10217000EF92FF920F931F93CF93DF9300D000D085
:10218000CDB7DEB78C01E62EF42E522E80916F0370
:1021900080FF89C0982F9E77923061F49E012F5F57
:1021A0003F4FC8010E949F0F4B8169818A810E9425
:1021B000801059C0E82FE695EF739EE39E0F9F7342
:1021C000943018F4F09072034EC09AE39E0F9F7300
:1021D000993068F4881F8827881F90917003292FF1
:1021E000220F022F082B97FB112710F93CC087E222
:1021F0008E0F8F738A30B8F5F0E07997E0FD02C05A
:1022000021E001C02FEFEE7FE451F94F85919491C9
:102210006FE070E00E94663526034001279F900C16
:102220001124580188E9A81A8EEFB80A84E7C82E4D
:1022300083E0D82E98E6692E77247394C501B30104
:102240000E94663596014F2D6E2D0E949F0FA80C9F
:10225000B91C84E0C80ED11C80EBC81683E0D806F8
:1022600069F70E94691080916F0300FB87F98093E2
:102270006F03902F9695809170038078892B10FBC7
:1022800087F980937003E0927103F09272035520F6
:1022900051F060916F037091700380917103909180
:1022A00072030E9417100F900F900F900F90DF9104
:1022B000CF911F910F91FF90EF90DF90CF90BF9043
:1022C000AF909F908F907F906F905F90089521E0E6
:1022D0000C94AF10EFE6F3E02081221F2227221F8B
:1022E00030917003432F440F842F822B37FB9927A3
:1022F00090F90C9668E671E00E947A35438162811C
:102300000C94671120916F03221F2227221F309106
:102310007003432F440F842F822B37FB992790F9AA
:102320008C3091051CF4845A9E4F01C00C9768E6CE
:1023300071E00E947A3540917203609171030C94B0
:102340006711EFE6F3E08081881F8827881F90914E
:102350007003292F220F97FB992790F943816FEF84
:10236000822B0C946711EFE6F3E08081881F8827A9
:10237000881F90917003292F220F97FB992790F9BE
:10238000438160E0822B0C94671140917203842F8B
:1023900090E0843F910514F4445F01C04FEF8091B9
:1023A0006F03881F8827881F90917003292F220FA1
:1023B00097FB992790F960917103822B0C94671118
:1023C00040917203842F90E00C9714F04C5001C0A0
:1023D00040E080916F03881F8827881F90917003C9
:1023E000292F220F97FB992790F960917103822B77
:1023F0000C94671120E00C94AF10CF9390916F0371
:1024000090FF40C09178811102C0926007C0853270
:1024100010F0986403C08F73880F982B90936F030C
:10242000662351F060916F03709170038091710386
:10243000909172030E941710C0916F036C2F6695E4
:102440006F7370E04BE050E084E091E00E949435BF
:10245000892B19F01092740203C081E080937402FA
:10246000CC1FCC27CC1F90917003892F880F97FB2E
:10247000992790F940917203609171038C2BCF9151
:102480000C94FA11CF91089561E00C94FD118091A4
:102490006F0386958F738F5F853208F081E00C940F
:1024A000441280916F0386958F73815009F484E202
:1024B0000C944412EFE6F3E080818160808386957E
:1024C0008F730C94441260E00C94FD1180913C03D6
:1024D000816080933C030E948C24811104C00E947F
:1024E000FA240E941D100E94131060936F037093D2
:1024F000700380937103909372036E7761F40E946E
:102500001D100E94131060936F03709370038093EB
:1025100071039093720381E08093740280916F0342
:1025200080FF04C086958F730C9463120895EFE6C4
:10253000F3E080818E7F80836081718182819381CD
:102540000E941710109274022FEF80E792E0215042
:1025500080409040E1F700C000000C946910809129
:102560006F0380FD0C9497120C945A12CF93C82FCE
:1025700080917202909173020E941A26EC2FF0E073
:10258000E851F94FE491F0E08E179F0708F443C03B
:102590000E940E26909373028093720260917102E2
:1025A00070E080E090E00E94673320E030E04FE789
:1025B00053E40E948A322BED3FE049E450E40E944C
:1025C00090340E94FD340E9404332BE43AE34EE23F
:1025D0005FE30E941D3220EF3BEF48ED52E40E9482
:1025E00090340E943633462F80916F03881F8827CE
:1025F000881F90917003292F220F97FB992790F93C
:1026000060917103822B0E9494108091710290E07E
:10261000019680937102CF910895CF93C82F809136
:102620006F02909170020E941A26EC2FF0E0EB519D
:10263000F94FE491F0E08E179F07E8F00E940E2614
:102640009093700280936F024091720360917103C6
:1026500080916D0290916E020E94941080916D02A3
:1026600090916E02019668E671E00E946635909343
:102670006E0280936D02CF910895CF92DF92FF9208
:102680000F931F93CF93DF93F82E80916B0290915D
:102690006C020E941A26EF2DE695F0E0EE51F94FFC
:1026A000E491F0E08E179F07E8F10E940E269093C8
:1026B0006C0280936B0204E713E0C0E0D0E088E690
:1026C000C82EDD24D3948091690290916A028C0F08
:1026D0009D1FB6010E94663598014091720360917A
:1026E00071030E949F0F68960C5F1F4FC83681E0F0
:1026F000D80749F70E9469102091690230916A0257
:10270000F0FE0AC0C9010196BE010E946635909391
:102710006A028093690206C02150310930936A022F
:1027200020936902DF91CF911F910F91FF90DF906D
:10273000CF900895AF92BF92CF92DF92EF92FF9227
:102740000F931F93CF93DF93C82F80FF02C01FEF1B
:1027500001C011E080916702909168020E941A26E0
:10276000C695EC2FF0E0E152F94FE491F0E08E17BE
:102770009F0708F466C00E940E269093680280931B
:10278000670224E7C22E23E0D22E36E7E32E33E0A1
:10279000F32EC0E0D0E0F70131971082F6011082ED
:1027A000F701108294E0A92EB12C00E0809166021E
:1027B000800F87FD815F082E000C990BC817D90781
:1027C000E9F4809172038A9DA0018B9D500D112424
:1027D000559547955595479580916F03881F882794
:1027E000881F90917003592F550F97FB992790F9E7
:1027F000960160917103852B0E949F0F010FF1E0FC
:10280000AF1AB10899F6219684E0C80ED11CE4E015
:10281000EE0EF11CCF30D10509F0BDCF0E9469103A
:1028200080916602113031F4811102C08EE007C040
:10283000815005C090E00196BE010E947A358093D8
:102840006602DF91CF911F910F91FF90EF90DF9083
:10285000CF90BF90AF9008950F931F93CF93DF93C6
:10286000C82F80916402909165020E941A26EC2F75
:10287000F0E0E452F94FE491F0E08E179F0708F47E
:1028800064C00E940E26909365028093640280E0EB
:1028900090E0FC01EC58FC4F1182108212820496E9
:1028A0008C339105B1F7C0E0D0E00FE010E0CE012D
:1028B000B8010E947A35FC0180916302082E000C59
:1028C000990BEE0FFF1FEE0FFF1FC817D907FCF083
:1028D00080910301082E000C990B8C179D07BCF00A
:1028E0009F012C583C4F80916F03881F8827881FB9
:1028F00090917003592F550F97FB992790F94091AC
:10290000720360917103852B0E949F0F05C0EC58E4
:10291000FC4F1182108212822196CF30D10539F6F8
:102920000E9469108091020190916302980F909328
:10293000630220910301280F20930301121614F45F
:102940009E301CF0819580930201DF91CF911F9101
:102950000F910895EF92FF920F931F93CF93DF9300
:1029600080916102909162020E941A26883E9340F3
:10297000D0F10E940E269093620280936102C09172
:102980005F02D09160022196C170DD27D093600272
:10299000C0935F0284E7E82E83E0F82E10E008E79A
:1029A000812F8695FE01E80FF11DCF0181709927D7
:1029B00097014091720360917103FC010E9FC00169
:1029C0000F9F900D11240E949F0F1F5FF4E0EF0EE8
:1029D000F11C1F3029F7DF91CF911F910F91FF90CC
:1029E000EF900C946910DF91CF911F910F91FF90A0
:1029F000EF900895CF93DF9300D000D0CDB7DEB72E
:102A000080915D0290915E020E941A26EAEDF6E046
:102A10002591349182179307C0F180915C02811156
:102A20000CC09E012F5F3F4F4FEF6FEF80E090E0B3
:102A30000E949F0F8A8180935C020E940E269093D1
:102A40005E0280935D0280915B02813051F028F03C
:102A5000823061F440915C020AC080915C0240E0E7
:102A600007C060915C0240E080E003C040E080E08D
:102A700060E00E94801080915B0290E0019663E02C
:102A800070E00E947A3580935B020F900F900F9058
:102A90000F90DF91CF9108950F931F93CF93DF9302
:102AA0008091590290915A020E941A26843F9140C7
:102AB00008F448C00E940E2690935A02809359024F
:102AC000C4E7D3E000E010E02091570230915802B3
:102AD00080916F0390917003073011051CF4232B34
:102AE00079F002C0232B61F4881F8827881F592F93
:102AF000550F97FB992790F99E01409172030AC0E8
:102B0000881F8827881F592F550F97FB992790F901
:102B10009E0140E060917103852B0E949F0F0F5F23
:102B20001F4F24960F30110579F60E94691080918D
:102B300057029091580201968170992790935802FC
:102B400080935702DF91CF911F910F91089580914B
:102B500074028823D9F190916F03892F86958F7322
:102B60002EE3280F2F73243018F482500C94B612E1
:102B70002AE3280F2F73233018F486500C940D137A
:102B800027E3280F2F73263018F489500C943D1337
:102B900021E3280F2F73263018F48F500C949A13CA
:102BA0002BE2280F2F73233018F485510C942C142A
:102BB000892F8E77803311F40C94AA14863411F483
:102BC0000C94FA14883411F40C944C15089588234D
:102BD00019F05198599A02C0519A59985098589A98
:102BE00095E09A95F1F70000509A589895E09A95DB
:102BF000F1F70000882311F0519A599885E08A95E1
:102C0000F1F7000008958BB18C7F8BB95098589ADA
:102C10005198599A85E08A95F1F7000008958AB194
:102C20008C7F8AB985E08A95F1F70000519A59980E
:102C300085E08A95F1F70000509A589885E08A95CA
:102C4000F1F7000008955098589A85E08A95F1F7B9
:102C500000005198599A85E08A95F1F7000008958F
:102C6000CF93DF93D82FC8E08D2F80780E94E7158F
:102C7000DD0FC150C9F780E00E94E71585E08A9515
:102C8000F1F7000085E08A95F1F7000080E0DF9120
:102C9000CF9108952BB1342F309523233BB1432B93
:102CA0003FB7F894FC01680F791FE617F70789F022
:102CB000819198E04BB9000000C087FF2BB9880FC5
:102CC000000000C000C000C02BB900C09A9591F769
:102CD000ECCF3FBF0895AF92BF92CF92DF92EF92B9
:102CE000FF920F931F93CF93DF938C01EB01CFB62D
:102CF000D090BC00F8948091BC008B7F8093BC0086
:102D00000E9403160E940F1684E80E943016CC0F12
:102D1000DD1FCC0FDD1F78015801AC0EBD1EEA147B
:102D2000FB0431F0F70181917F010E943016F7CF4B
:102D30000E942316CFBED092BC00579A40E8BE0135
:102D4000C801DF91CF911F910F91FF90EF90DF901D
:102D5000CF90BF90AF900C944A160F931F93CF93D0
:102D6000DF93CDB7DEB728970FB6F894DEBF0FBE5E
:102D7000CDBF809111018F93809110018F938CECC6
:102D800091E09F938F931F9288E08F938E010F5F46
:102D90001F4F1F930F930E94A135C8010E94E008A6
:102DA0000FB6F894DEBF0FBECDBF28960FB6F894CD
:102DB000DEBF0FBECDBFDF91CF911F910F91089560
:102DC000CF93DF93EC010E940E26909379028093BB
:102DD0007802D0937702C0937602DF91CF91089565
:102DE000CF93DF938091760290917702892B59F1EE
:102DF00080917802909179020E941A26EC018091CC
:102E00001001909111018C179D0718F481EE0E941A
:102E10005019809176020E945019809176020E948A
:102E2000891A80911001909111018C179D0718F457
:102E300081EE0E94891A1092790210927802109203
:102E4000770210927602DF91CF91089510920F01D0
:102E50000C94F01680910F01882321F010920F013D
:102E60000C94F01681E080930F0108951F93CF9387
:102E7000DF93EC01FB011281112309F45BC084365E
:102E8000910509F444C078F48B32910509F43FC0F0
:102E900028F40497849708F04AC039C08D970C979E
:102EA00008F045C034C089319C4539F1CA318CE500
:102EB000D80768F4C731ECE5DE07A1F0C831DC457E
:102EC000B1F58091100190911101059710C0CB319F
:102ED0008CE5D807C1F0A0F0CC31DC4541F50E946B
:102EE000261709C0809110019091110105969093C9
:102EF00011018093100110E020C00E94AD16FBCF9D
:102F00000E942A17F8CF81E080930F01F4CF0E942E
:102F1000F01680910F01882381F00E940024809395
:102F2000750281110AC0CE010E94E016E4CF0E9412
:102F3000F01603C00E94F01611E0812FDF91CF91AF
:102F40001F91089590937F0280937E020895E091EF
:102F50007E02F0917F02309721F00190F081E02D08
:102F6000099480E00895E0917E02F0917F0230970D
:102F700099F020912301222359F02091B60327FFD5
:102F800007C0DC012C9111962C93119725E02C930E
:102F90000280F381E02D09940895E0917E02F09182
:102FA0007F02309739F022E0DC012C930480F58118
:102FB000E02D0994089520917C0230917D028217C2
:102FC000930771F090937D0280937C02E0917E02E2
:102FD000F0917F02309721F00680F781E02D09946F
:102FE000089520917A0230917B028217930771F045
:102FF00090937B0280937A02E0917E02F0917F02AF
:10300000309721F00084F185E02D0994089585B76B
:10301000806885BF85B7806885BF089508950E9440
:1030200007180C940E1881E008950E9405260E944E
:103030004E050E949C260C946612CF92DF92EF926E
:10304000FF920F931F93CF93DF93CDB7DEB72B97EC
:103050000FB6F894DEBF0FBECDBF0E9420060E94BF
:103060001318811111C08FEF89838A831B820E94FC
:103070000E268160782F9D838C8349815A816B81D4
:103080008D810E94011956C081E8C82E82E0D82E99
:1030900000E010E0E02E802F0E946806F6014191CA
:1030A0006F01F42EF82631F40F5F1F4F0E3011051B
:1030B00089F7D9CF90913C0391FF04C08B870E9480
:1030C0006E068B8520E030E04F2D50E0922FBA0144
:1030D000022E02C0759567950A94E2F760FF24C03E
:1030E0002E83EF8221E030E0690102C0CC0CDD1CB0
:1030F0009A95E2F790E08C219D21892B09F420E03C
:1031000028870E940E268160782F9A8789874E81B2
:103110005F8168858A850E940119F801EF57FD4F8C
:103120008081C826C08206C02F5F3F4F2630310500
:1031300069F6BACF0E942F28109180020E94A7172B
:103140001817A1F00E94A717809380022B960FB644
:10315000F894DEBF0FBECDBFDF91CF911F910F91CD
:10316000FF90EF90DF90CF900C943B092B960FB619
:10317000F894DEBF0FBECDBFDF91CF911F910F91AD
:10318000FF90EF90DF90CF900895DC0111962C9185
:1031900011978C91682F70E041E050E001C0440F1E
:1031A0008A95EAF712968C91129730E0882329F0DD
:1031B00080919F028823E9F006C0F901E157FD4F95
:1031C00090819423B1F086E0829FF001839FF00DFF
:1031D0001124E60FF71FEE0FFF1FEC5DFE4F8081FD
:1031E00091818D939C93F901E157FD4F8081482B8C
:1031F00006C0F901E157FD4F409580814823408387
:103200000895CF93DF93CDB7DEB72B970FB6F89421
:10321000DEBF0FBECDBF942F4F83252F5887698700
:103220007A878B874A855B85452B21F02F3F09F5EF
:103230009F3FF9F4DE01119686E0FD0111928A9517
:10324000E9F785E0FE01379601900D928A95E1F746
:1032500049815A816B817C818D819E810E94A3204E
:103260002B960FB6F894DEBF0FBECDBFDF91CF9186
:103270000895CE0107960E94C518DCCFFC0180811D
:1032800091810E946E2392959F70963041F48091B7
:103290009F0291E0892780939F0290939E02089558
:1032A000CF93DF931F92CDB7DEB7882309F42DC1EA
:1032B000682F8238C1F40E94A71781FD26C169E3F7
:1032C00080911201909113010E9461250E94CD23EB
:1032D0002FEF81EE94E0215080409040E1F700C054
:1032E000000069E319C0833811F50E94A71780FD1B
:1032F0000CC163E580911201909113010E94612538
:103300000E94CD232FEF81EE94E021508040904029
:10331000E1F700C0000063E5809112019091130174
:103320000E946C250F90DF91CF910C94CD238438AF
:10333000C1F40E94A71782FDE8C067E480911201E2
:10334000909113010E9461250E94CD232FEF81EE01
:1033500094E0215080409040E1F700C0000067E415
:10336000DBCF8CEF860F813A70F4862F69830E9441
:10337000652A69818111C9C0809112019091130160
:103380000E946125CFCF80E2860F883048F46770B5
:1033900081E001C0880F6A95EAF70E940324C2CF3A
:1033A0008BE5860F833088F4653A29F0663A31F070
:1033B00083E890E005C081E890E002C082E890E0F8
:1033C0000F90DF91CF910C94DB1788E5860F873142
:1033D00008F091C0683A09F445C0693A09F445C05B
:1033E0006A3A09F445C06B3A09F445C06C3A09F4ED
:1033F00045C06B3B09F445C06C3B09F445C06D3AD0
:1034000009F445C0603B09F445C06E3A09F445C073
:103410006F3A09F445C0613B09F445C0623B09F4C9
:1034200045C0633B09F445C0643B09F445C0653BB6
:1034300009F445C0663B09F445C0673B09F445C043
:10344000683B09F445C0693B09F445C06D3B09F48C
:1034500045C06E3B09F445C06A3B09F445C080E0B5
:1034600090E044C082EE90E041C089EE90E03EC022
:103470008AEE90E03BC085EB90E038C086EB90E0B0
:1034800035C083EB90E032C084EB90E02FC087EB37
:1034900090E02CC08CEC90E029C08DEC90E026C030
:1034A00083E891E023C08AE891E020C082E991E0BE
:1034B0001DC084E991E01AC081E292E017C083E266
:1034C00092E014C084E292E011C085E292E00EC066
:1034D00086E292E00BC087E292E008C08FE690E0BF
:1034E00005C080E790E002C08AE292E00F90DF9191
:1034F000CF910C94F117603F40F0862F0E94372740
:103500000F90DF91CF910C9424280F90DF91CF91F1
:103510000895882309F464C0823879F40E94A717BB
:1035200081FF5EC069E380911201909113010E94B6
:1035300061250E94CD2369E310C08338B1F40E9455
:10354000A71780FF4DC063E5809112019091130190
:103550000E9461250E94CD2363E580911201909124
:1035600013010E946C250C94CD23843879F40E94B9
:10357000A71782FF35C067E4809112019091130173
:103580000E9461250E94CD2367E4E7CF9CEF980F4E
:10359000913A10F4682FE1CF90E2980F983050F4F0
:1035A000877091E001C0990F8A95EAF7892F0E94F0
:1035B0000924D9CF9BE5980F933020F480E090E068
:1035C0000C94DB1798E5980F973120F480E090E099
:1035D0000C94F117803F20F00E949F270C94242820
:1035E0000895882321F00E9403240C94CD2308958C
:1035F000882321F00E9409240C94CD2308958F92F2
:103600009F92AF92BF92DF92EF92FF920F931F9320
:10361000CF93DF937C01D62FC72FFC010581029544
:103620000F70128111110E9420240E94C62388234A
:1036300079F0112369F080E28D0F883048F082E044
:103640000E94AF230E94C62391E0D82ED92601C044
:10365000D12CAC2EA2948FE0A822B12CF501EA580F
:10366000FF4F0C948E358C2F807FCF70882311F004
:10367000C295C07F112399F0CC2309F4C8C180E220
:103680008D0F883010F0D11104C08C2F0E940324BC
:1036900003C08C2F0E9413240E94CD23B8C18D2F0C
:1036A0000E94891ACC2309F42EC280E28D0F883043
:1036B00010F0D11104C08C2F0E94092403C08C2F5C
:1036C0000E9419240E94CD231EC28C2F807FCF70B0
:1036D000803211F0C295C07FDD2319F0D130C9F0DE
:1036E00021C0112371F0002341F0013031F40E9418
:1036F00039248C2B0E94332406C20E9439248C2B3F
:103700003FC1002319F0013009F4FDC10E943624A5
:1037100011C0112321F0023008F0F5C107C00111DA
:10372000F2C108C0112321F0011171C18C2F28C1F1
:1037300001117EC18C2F2AC18C2F869586958370AE
:1037400090E0009719F0019761F0DDC1112321F09D
:103750008D2F9C2F937002C080E090E00E94DB17B9
:10376000E2C1112321F08D2F9C2F937002C080E0C5
:1037700090E00E94F117D7C11123F9F0D53F51F025
:10378000D63F71F0D43FA9F48091B0039091B1037A
:1037900081600BC08091B0039091B103826005C03D
:1037A0008091B0039091B10384609093B1038093B2
:1037B000B0038D2F0E9437271EC0D53F51F0D63F52
:1037C00071F0D43FA9F48091B0039091B1038E7F42
:1037D0000BC08091B0039091B1038D7F05C08091A3
:1037E000B0039091B1038B7F9093B1038093B003AA
:1037F0008D2F0E949F270E94242895C18C2F8370B3
:1038000009F050C011118BC18D2F8295869587705C
:10381000880F880F9D2F9F70892E912CA12CB12C81
:10382000082E04C0880C991CAA1CBB1C0A94D2F751
:10383000D4FF14C00FE010E020E030E0B901A8018F
:1038400004C0440F551F661F771F8A95D2F7CB011E
:10385000BA01609570958095909503C060E070E026
:10386000CB01C695C695C370D0E0C230D10561F0DA
:10387000C330D10581F0682979298A299B292197AC
:1038800071F00E94E8214BC1682979298A299B2976
:103890000E94FA2144C10E94E821C501B4010E949E
:1038A000D6213DC1112319F08C2F817001C086955E
:1038B000882309F434C18D2F829586958770880FEF
:1038C000880F9D2F9F70892E912CA12CB12C082E32
:1038D00004C0880C991CAA1CBB1C0A94D2F7D4FF04
:1038E00014C00FE010E020E030E0B901A80104C0EE
:1038F000440F551F661F771F8A95D2F7CB01BA0177
:10390000609570958095909503C060E070E0CB0164
:10391000C695C695C3704C2F50E04230510569F0F2
:103920004330510589F0682979298A299B2941303A
:10393000510571F00E94AD22F2C0682979298A29C7
:103940009B290E94BF22EBC00E94AD22C501B40199
:103950000E949B22E4C08D2F90E0FC01E05EF10903
:10396000E531F10508F04FC0EA57FF4F0C948E3552
:10397000DF708C2F8F71112331F00E9434228D2F34
:103980000E94F11AC0C00E9455228D2F0E94F81A81
:10399000BAC0112339F00111B6C08C2F8F710E946B
:1039A0007A22B1C0023008F0AEC0F7CF112339F04F
:1039B0008C2F8F710E943422A6C01123C9F38C2F43
:1039C0008F710E9455229FC0112329F08C2F8F7177
:1039D0000E941F2298C00E941A2295C0112349F00C
:1039E000CF718C2F0E94342263E08C2F0E94A6237B
:1039F0008AC081E00E94AF23023008F484C082E0D4
:103A00000E94AF2380C0112331F0002389F28D2F53
:103A10000E94501978C0002391F2D93349F45FEF26
:103A200067EE73E0515060407040E1F700C0000065
:103A30008D2F0E94891A67C04C2F4F706D2FC701C0
:103A40000E942E080E9447216EC0D23FB1F028F498
:103A5000D03F49F0D13FF9F028C0D43FB9F058F039
:103A6000D53F71F022C0112309F447C090919F0205
:103A700081E0892708C081E0182710939F023DC08C
:103A800011113BC081E080939F0237C0111135C0F6
:103A900010929F0232C0112329F080919E02882348
:103AA00029F329C0002311F328C080919E0200232E
:103AB000C1F0882341F090919F0281E08927809393
:103AC0009F0210929E028D2F112319F00E9450190F
:103AD00014C00E94891A86E0F70111928A95E9F7CD
:103AE0000CC0882351F0111108C090919F0281E011
:103AF000892780939F0210929E024C2F4F706D2F4A
:103B0000C7010E94120CF8E0AF16B10441F05CF05E
:103B10004AE0A41AB10852E0A516B10420F40E94AC
:103B2000A7170E943B09DD20E1F00E94A22380FD3F
:103B300018C0F70112820E949C230E943422C70100
:103B40000E94BD1D0E949C23DF91CF911F910F9178
:103B5000FF90EF90DF90BF90AF909F908F900C946C
:103B60005522DF91CF911F910F91FF90EF90DF9041
:103B7000BF90AF909F908F9008950F931F93CF9316
:103B8000DF93EC01888199812B813C81232BB9F053
:103B90009F3F11F48F3F99F0CE010E944D09882379
:103BA00071F0688179818A810E9479238C010E9459
:103BB000D1220E94D321B801CE010E94FF1ADF91C9
:103BC000CF911F910F9108950E9420240E943024CC
:103BD00080911201909113010E9477250E94CD23BC
:103BE0000E94CA280E94242880E090E00E94DB17EF
:103BF00080E090E00C94F1170E9410240C94E41DD6
:103C00000E946E23E92FE295EF70F0E03297EE30DC
:103C1000F105B0F4E556FF4F0C948E35803F91F0DE
:103C200018F4803E68F40EC0843F51F40BC0803E0F
:103C300048F0813F29F406C093FB882780F9089556
:103C400080E0089581E00895CF93DF9300D000D005
:103C50001F92CDB7DEB70F900F900F900F900F907F
:103C6000DF91CF910895CF93DF9300D000D000D0A3
:103C7000CDB7DEB726960FB6F894DEBF0FBECDBF28
:103C8000DF91CF9108951F93CF93DF93C091A0024E
:103C900016E08091A102C81799F0D0E01C9FF001B6
:103CA0001D9FF00D1124EE55FD4F40815181628121
:103CB0007381848195810E94331E2196C770E9CF5C
:103CC000DF91CF911F9108954091D2025091D3027C
:103CD0006091D4027091D5028091D6029091D70262
:103CE0000C94331E8091D70282958F7009F054C0D6
:103CF0008091D402882309F44FC08091A002A09142
:103D0000A1026091D2027091D3024091D5025091EC
:103D1000D602B6E08A1709F43FC090E0411551057C
:103D2000C1F17F3F11F46F3FA1F1B89FF001B99F3E
:103D3000F00D1124EE55FD4F218172132AC0208110
:103D4000621327C02281211124C0238134812417CA
:103D5000350710F421503109241B350B293B31055F
:103D6000C0F42091D7022F7020612093D70226E063
:103D7000289FF001299FF00D1124E955FD4F808106
:103D80008F708061808382ED92E00E94BD1D0C9453
:103D9000431E01968770BECF0895CF92DF92EF92B7
:103DA000FF920F931F93CF93DF93CDB7DEB7629748
:103DB0000FB6F894DEBF0FBECDBF8C0185E0F801D1
:103DC000DE011D9601900D928A95E1F7D8014C9184
:103DD00011965C91119712966C9112971396CD9053
:103DE000DC9014973091D2027091D3028091D50269
:103DF0009091D602009709F46BC17F3F19F43F3FC1
:103E000009F466C1E090D402EE2009F4C0C020910C
:103E1000D702C816D90628F0F601E81BF90BCF0126
:103E200004C0809590958C0D9D1DFF24F394893BD3
:103E3000910578F0F12C207F09F0C6C07C2DD98A3D
:103E4000C88A89890E94241E82ED92E00E94BD1DCD
:103E5000B1C0822F807F09F046C0751314C034139F
:103E600012C0611110C02F7020612093D7020E94F0
:103E7000641E82ED92E00E94BD1D8091D702D801A0
:103E800015968C932EC0CD2819F15F3F11F44F3F4A
:103E9000F9F0F62E61111CC08091A0022091A102C0
:103EA00036E0821709F45AC090E0389FF001399F3C
:103EB000F00D1124EE55FD4F7181571306C070812E
:103EC000471303C07281711103C001968770E9CF57
:103ED000F62E662309F427C18091D7028160809372
:103EE000D702F12C20C1751308C0341306C061112C
:103EF00004C08091D702D801C3C04D875E878D85ED
:103F00009E856A8B0E94001E6A898823E1F16623E0
:103F1000D1F12091D702822F82958F7090E0029785
:103F200074F08091D2029091D30298878F83198682
:103F3000DB86CA862C87CE0107960E94BD1D86E0CF
:103F4000F801A2EDB2E001900D928A95E1F70E948E
:103F5000721E0E94641EFF24F394E5C04D875E87A5
:103F60008D859E850E946E23292F22952F7030E02B
:103F7000223031050CF0CBC09F7009F0C5C0805EC7
:103F8000883008F4D0C0C8010E94BD1DE4CFC81617
:103F9000D90608F453C0F601E81BF90BCF01893BA1
:103FA000910508F450C0F12C7C2DD98AC88A8989E2
:103FB0000E94241EE2EDF2E086E0DF011D928A9568
:103FC000E9F70E94641EAFC0751314C0341312C009
:103FD000611110C08091D702F8018583C8010E9449
:103FE000BD1D86E0E2EDF2E0DF011D928A95E9F762
:103FF000FE2C99C04D875E878D859E856A8B0E94B9
:10400000001E6A89882309F4BECF662309F4BBCF5A
:104010002091D702822F82958F7090E002970CF446
:104020008ECF8091D2029091D3029A8389831B8292
:10403000DD82CC822E83CE0101967FCF8095909534
:104040008C0D9D1DACCFF62E662309F49CCF751305
:104050002EC034132CC02091D70220FD1FC0822F08
:1040600082958F70D9F0D80115962C9315978F30C3
:1040700049F08F5F982F9295907F822F8F70892BB8
:1040800015968C93C8010E94BD1D86E0F801A2ED33
:10409000B2E001900D928A95E1F793CF86E0F801A6
:1040A000A2EDB2E001900D928A95E1F73CC04D87F8
:1040B0005E878D859E850E94001E811140CF809174
:1040C000D70281608093D702C8010E94BD1D2BC01A
:1040D000662309F458CF4D875E878D859E850E94A3
:1040E000001EF82E882309F44ECF86E0F801A2EDD9
:1040F000B2E001900D928A95E1F782ED92E00E9484
:104100003E190E94721E5DCF811139CF0CC0243040
:1041100031050CF038CF9F7009F431CFF80195814B
:10412000907F09F02CCF8F2D62960FB6F894DEBFEA
:104130000FBECDBFDF91CF911F910F91FF90EF90F8
:10414000DF90CF9008951F93CF93DF93CDB7DEB765
:104150002C970FB6F894DEBF0FBECDBF4F835887A4
:1041600069877A878B879C87CE0107960E94CD1E30
:10417000882369F08F8198852A853B85232BF1F16F
:104180009F3F09F063C08F3F09F060C037C086E0F1
:10419000FE013796DE01119601900D928A95E1F7A6
:1041A0006F817885EA85FB85309741F17F3F11F477
:1041B0006F3F21F12091A10230E0C9010196877083
:1041C00099274091A00250E08417950709F447C051
:1041D00069837A83FD83EC8396E0929FD001939F5D
:1041E000B00D1124AE55BD4FFE01319601900D92D8
:1041F0009A95E1F78093A1020E94431E16E08091F8
:10420000A0029091A1028917C1F1189FC001112449
:104210008E559D4F0E94CD1E882379F1E091A0021A
:104220001E9FF0011124EE55FD4F408151816281A6
:104230007381848195810E94331E8091A00290E059
:104240000196877099278093A002D9CF4F81588516
:1042500069857A858B859C850E94331ECFCF0E940D
:10426000FC1D1092A1021092A002E2EDF2E086E0A5
:10427000DF011D928A95E9F7C1CF2C960FB6F8940D
:10428000DEBF0FBECDBFDF91CF911F910895EF929A
:10429000FF920F931F93CF93DF938C01892B09F427
:1042A0006CC0F12CEE24E394E8012196F80184918E
:1042B000843740F4843008F051C0813081F082307E
:1042C00019F15BC0853709F444C0A8F19CE7980F49
:1042D000903708F052C08F770E94891A41C00E5F54
:1042E0001F4FFE01C49180E28C0F883048F4C770E4
:1042F0008E2D01C0880FCA95EAF70E94232414C0AE
:104300008C2F0E9450192DC00E5F1F4FFE01C491CB
:1043100080E28C0F883058F4C7708E2D01C0880F52
:10432000CA95EAF70E9429240E94CD231AC08C2F37
:104330000E94891A16C00E5F1F4FFE01C491CC2344
:1043400081F08FE99FE00197F1F700C00000C150B4
:10435000F6CF0E5F1F4FFE01F49003C00E9450196C
:104360008E018F2D882309F49FCFEFE9FFE031976D
:10437000F1F700C000008150F5CFDF91CF911F9180
:104380000F91FF90EF90089508950C94C4210E941E
:10439000C5216093130370931403809315039093C6
:1043A00016030C94E41D08950C94C7210F931F93DA
:1043B00000911303109114032091150330911603FB
:1043C000602B712B822B932B1F910F910C94C72183
:1043D0000F931F9300911303109114032091150361
:1043E0003091160360237123822393231F910F9131
:1043F0000C94C7210F931F93009113031091140382
:104400002091150330911603602771278227932787
:104410001F910F910C94C7210C9455080E940C22F7
:1044200060930F0370931003809311039093120312
:104430000C94E41D60E070E0CB010C940E220F930D
:104440001F9341E050E060E070E08A019B0104C0EE
:10445000000F111F221F331F8A95D2F7C901B8011F
:104460001F910F910C940E220F931F9341E050E087
:1044700060E070E004C0440F551F661F771F8A95E7
:10448000D2F780910F0390911003A0911103B09186
:1044900012038A019B01082B192B2A2B3B2BC901E4
:1044A000B8011F910F910C940E220F931F9341E0BE
:1044B00050E060E070E004C0440F551F661F771F96
:1044C0008A95D2F7409550956095709580910F032D
:1044D00090911003A0911103B09112038A019B01E6
:1044E000082319232A233B23C901B8011F910F91E7
:1044F0000C940E220F931F9341E050E060E070E0B7
:1045000004C0440F551F661F771F8A95D2F780910C
:104510000F0390911003A0911103B09112038A012F
:104520009B01082719272A273B27C901B8011F919A
:104530000F910C940E220F931F9300910F03109173
:1045400010032091110330911203602B712B822BE9
:10455000932B1F910F910C940E220F931F93009198
:104560000F03109110032091110330911203602367
:104570007123822393231F910F910C940E220F938A
:104580001F9300910F03109110032091110330919C
:10459000120360277127822793271F910F910C9494
:1045A0000E220895292F220F920F990F890FA82FFD
:1045B000A695A695A695877051E001C0550F8A95DE
:1045C000EAF785E0A89FD001112420E030E070E0F8
:1045D000F901EA0FFB1FE852FD4F4081CB01022E8B
:1045E00002C0969587950A94E2F781709927819584
:1045F00084278523842780832F5F3F4F2530310513
:1046000039F70895292F220F920F990F890F682FDC
:10461000669566956695982F977085E0689FB001BE
:10462000112440E050E080E0FA01E60FF71FE85265
:10463000FD4F208130E0092E02C0369527950A945F
:10464000E2F721703327042E01C0220F0A94EAF703
:10465000822B4F5F5F4F4530510531F70895CF9260
:10466000DF92EF92FF920F931F93CF93DF938C0112
:10467000C0901303D0901403E0901503F09016033C
:1046800080910F0390911003A0911103B091120338
:10469000C82AD92AEA2AFB2ACFE1D0E0D701C601ED
:1046A0000C2E04C0B695A795979587950A94D2F7D6
:1046B00080FF06C0B8018C2F0E942D0C019721F4B9
:1046C000219760F780E001C08C2FDF91CF911F917F
:1046D0000F91FF90EF90DF90CF900895CF93DF93ED
:1046E000EC010E942F23BE010E942D0CDF91CF917F
:1046F00008951F93CF93DF93EB0190919D0299232F
:1047000021F0CB010E946E2313C0882349F0CB0116
:104710000E942F23182F682FCE010E94D22204C09E
:10472000CB010E940223182FBE01812F0E942D0C65
:10473000DF91CF911F9108958091170385958595FD
:1047400085950895809117038770089598E0899F53
:1047500090011124262B209317030C9434222091CE
:1047600017038095822380931703982F977069F41D
:1047700030E0482F082E000C550B2417350729F080
:104780008595859585950C945522089590911703EC
:10479000977081E009F480E00895E0911201F091B2
:1047A000130180913B038083E0911201F09113018A
:1047B000908180913A03892B8083E0911201F091DE
:1047C0001301908180913903892B80838091180394
:1047D000882381F0E0911201F09113019081892BDF
:1047E000808380911201909113010E94FC24811119
:1047F0001092180380911201909113010C94B31739
:1048000080913B03089590913B03892B80933B0358
:104810000895809590913B03892380933B030895ED
:1048200010923B03089590913A03892B80933A03A9
:104830000895809590913A03892380933A030895CF
:1048400010923A03089590913903892B809339038C
:1048500008958095909139038923809339030895B1
:104860001092390308958093180308951092180345
:104870000895809118030895CF92DF92EF92FF92EE
:104880006C01EE24FF24C114D104E104F10421F0F1
:10489000C701B60120E101C020E0C72ED82EE92EC5
:1048A000FF24C114D104E104F10419F0285FC70109
:1048B000B6016B017C0154E0F694E794D794C79459
:1048C0005A95D1F7C114D104E104F10419F02C5F19
:1048D000C701B6016B017C0142E0F694E794D794DE
:1048E000C7944A95D1F7C114D104E104F10419F039
:1048F0002E5FC701B601DC01CB01B695A795979550
:104900008795892B8A2B8B2B09F02F5F822FFF90A5
:10491000EF90DF90CF90089580E090E00E945D38A6
:1049200021E08D3E9E4F09F020E0822F089582E025
:1049300090E00C944F3883E090E00C944F3884E082
:1049400090E00C944F38682F84E090E00C9463382A
:10495000AB01BC018FE090E00C947538AB01BC0159
:1049600083E190E00C94753860E070E0CB010C942A
:10497000AE2460E070E0CB010E94A8240C94B42423
:104980006DEE7EEF80E090E00E94813860E082E092
:1049900090E00E94633860E083E090E00E9463381A
:1049A0001092130310921403109215031092160321
:1049B00060E084E090E00E94633860E085E090E091
:1049C0000E94633860E086E090E00E9463386FEFF9
:1049D00087E090E00E94633840E050E0BA0188E050
:1049E00090E00E94753860E08DE090E00E946338AE
:1049F0000C94B9240C94C024FC01329680912301BC
:104A0000882331F08091B60387FF02C09EE101C088
:104A100096E080E0915028F021912223D9F38F5F16
:104A2000F9CF08959C01FC0132969FEF80E04191FF
:104A3000461789F09F3F19F4411101C0982F8F5FED
:104A40008630A9F79F3F39F0F901E90FF11D97FD75
:104A5000FA95628308950895FC01329608962081A4
:104A6000261301C010823196E817F907C1F708959F
:104A7000262F2695269526952E3168F4FC01E20F07
:104A8000F11D677021E030E001C0220F6A95EAF75E
:104A90008281282B22830895262F269526952695F8
:104AA0002E3170F4FC01E20FF11D677021E030E05F
:104AB00001C0220F6A95EAF720958281282322837C
:104AC000089520912301222329F02091B60327FD88
:104AD0000C9438250C94122520912301222329F0CF
:104AE0002091B60327FD0C944C250C942C25209185
:104AF0002301FC013296222331F08091B60387FF17
:104B000002C08EE101C086E0DF011D928A95E9F7BF
:104B1000089508950C9489250E948A258091BC03EC
:104B2000843049F110923D0320E488E190E00FB613
:104B3000F894A895809360000FBE2093600080E0F9
:104B40000E943B090E948A2583B7817F846083BFCE
:104B500083B7816083BF7894889583B78E7F83BF46
:104B60000FB6F894A89580916000886180936000EA
:104B7000109260000FBE08950895CF930E947705AC
:104B80000E9420060E94BC25C0E08C2F0E9468066F
:104B9000811104C0CF5FCE30C1F701C081E0CF9159
:104BA000089508950C94D1250E94FC1D0E94A7171A
:104BB0000E943B090C94D2251F920F920FB60F92C0
:104BC00011248F939F93AF93BF9380913D038111E5
:104BD00013C08091B2039091B303A091B403B0913C
:104BE000B5034196A11DB11D8093B2039093B30309
:104BF000A093B403B093B503BF91AF919F918F91F0
:104C00000F900FBE0F901F90189582E084BD93E027
:104C100095BD9AEF97BD80936E0008952FB7F894D5
:104C20008091B2039091B303A091B403B091B50306
:104C30002FBF0895CF92DF92EF92FF920F931F93B1
:104C40002FB7F8944091B2035091B3036091B4032D
:104C50007091B5032FBF6A017B01EE24FF248C0104
:104C600020E030E0C016D106E206F30610F4415011
:104C700051099A01281B390BC9011F910F91FF900F
:104C8000EF90DF90CF90089578941F920F920FB617
:104C90000F9211248F939F93AF93BF938091B20390
:104CA0009091B303A091B403B091B5030196A11DF7
:104CB000B11D8093B2039093B303A093B403B09358
:104CC000B503BF91AF919F918F910F900FBE0F9041
:104CD0001F901895F89481E08093E00080E2809323
:104CE000D800E9ECF0E010828FE19EE40197F1F743
:104CF00000C000001DBA109268001CBC10BE1FBA94
:104D000010927A0010926E0010926F001092710053
:104D1000109272001082ECEBF0E0108214B817B819
:104D20001AB81DB810BA108215B818B81BB81EB83A
:104D300011BA0C94003F08950E948C24811102C086
:104D40000E94FA240E94972480933C030E949F248F
:104D500090E09093B7038093B6030E949B24682F42
:104D600070E080E090E00C94D4218091410380FFBA
:104D70000BC06091170185E0689FB0011124759503
:104D80006795759567952BC081FF09C060911701E4
:104D900085E0689FB00111247595679520C082FF5A
:104DA00007C06091170185E0689FB001112417C00A
:104DB000909142039923D1F060911601961788F7DC
:104DC0002091170185E0289F90011124929FA00156
:104DD000939F500D112470E0CA010E947A3560380B
:104DE000710540F46115710539F002C065E070E0AD
:104DF000862F08958FE7089581E0089580914103FB
:104E000080FF08C06091150170E0759567957595F4
:104E1000679521C081FF06C06091150170E075950E
:104E2000679519C082FF04C06091150170E010C041
:104E3000909142039923C1F0609114019617A0F755
:104E400080911501899FC001112470E00E947A357C
:104E50006038710528F46115710521F0862F0895D9
:104E60008FE7089581E0089561E070E0F4CF803F1E
:104E700021F40E94B526819504C0813F29F40E9447
:104E8000B526809346030895823F21F40E94B526FB
:104E9000819504C0833F29F40E94B5268093450381
:104EA0000895893F19F40E94FE2605C08A3F31F417
:104EB0000E94FE2681958093470308958B3F21F43D
:104EC0000E94FE26819504C08C3F29F40E94FE2694
:104ED000809348030895843F21F4809144038160C6
:104EE00017C0853F21F480914403826011C0863F42
:104EF00021F48091440384600BC0873F21F48091AA
:104F00004403886005C0883F31F480914403806188
:104F10008093440308958D3F21F480914103816083
:104F20000BC08E3F21F480914103826005C08F3F0A
:104F300029F4809141038460809341030895803F68
:104F400039F48091460387FF6CC01092460369C014
:104F5000813F29F4809146031816BCF362C09091FA
:104F60004503823F29F497FF5CC01092450359C066
:104F7000833F19F41916CCF354C0893F41F4809152
:104F8000470318160CF04DC0109247034AC08A3FE1
:104F900029F48091470387FF44C0F6CF8B3F39F453
:104FA0008091480387FF3DC0109248033AC08C3F70
:104FB00029F4809148031816BCF333C0843F21F4D0
:104FC000809144038E7F17C0853F21F48091440374
:104FD0008D7F11C0863F21F4809144038B7F0BC0ED
:104FE000873F21F480914403877F05C0883F31F4D7
:104FF000809144038F7E8093440313C08D3F21F43E
:10500000809141038E7F0BC08E3F21F4809141033C
:105010008D7F05C08F3F29F4809141038B7F809362
:1050200041038091450381110EC080914603811197
:105030000AC080914703811106C080914803811105
:1050400002C010924203089583E493E00E94CD17BA
:105050000E940E2690933F0380933E0308951F9372
:10506000CF93DF9380913E0390913F030E941A26D5
:10507000AC0190914203992321F02091180130E076
:1050800006C0209140038AE0289F90011124421716
:10509000530708F47BC080914503C0914603D0912B
:1050A000470310914803811107C0C1116BC0D11192
:1050B00069C0111167C06AC09F3F19F09F5F90934C
:1050C0004203181624F40E94B5268093450380916C
:1050D000450387FF05C00E94B5268195809345034F
:1050E0001C1624F40E94B526809346038091460343
:1050F00087FF05C00E94B5268195809346033091B5
:1051000045033323E1F0209146032223C1F045EB10
:105110003403C0011124892F990F990B009709F4CA
:1051200081E08093450335EB2303C0011124892FCF
:10513000990F990B009709F481E0809346031D169F
:1051400024F40E94FE26809347038091470387FF43
:1051500005C00E94FE26819580934703111624F412
:105160000E94FE26809348038091480387FF05C074
:105170000E94FE26819580934803DF91CF911F9175
:105180000C9424289F3F09F099CFA1CFDF91CF91B4
:105190001F910895E3E4F3E086E0DF011D928A9514
:1051A000E9F710924203109241030895833081F190
:1051B00028F4813059F08230D1F00895853009F417
:1051C00049C0B8F1863009F456C008958091400373
:1051D000262F30E0280F311D2F3F310524F4680FB2
:1051E0006093400308958FEF80934003089580916A
:1051F0001801262F30E0280F311D2F3F310524F4F0
:10520000680F6093180108958FEF80931801089537
:1052100080911701262F30E0280F311D2F3F3105D7
:1052200024F4680F6093170108958FEF809317019E
:10523000089580911601262F30E0280F311D2F3F51
:10524000310524F4680F6093160108958FEF809361
:105250001601089580911501262F30E0280F311D89
:105260002F3F310524F4680F6093150108958FEFE7
:1052700080931501089580911401262F30E0280FA6
:10528000311D2F3F310524F4680F609314010895F8
:105290008FEF809314010895833011F128F4813049
:1052A00049F0823091F00895853081F120F1863007
:1052B000C1F1089580914003681720F4861B809304
:1052C00040030895109240030895809118016817D3
:1052D00020F4861B809318010895109218010895F8
:1052E00080911701681720F4861B80931701089599
:1052F00010921701089580911601681720F4861BFB
:105300008093160108951092160108958091150159
:10531000681720F4861B80931501089510921501DB
:10532000089580911401681720F4861B809314015E
:1053300008951092140108950F931F93873208F077
:105340004DC08E3108F093C0803109F47DC008F55E
:10535000873009F46BC068F4863009F0A3C08091EF
:105360003C03817F8E7F80933C0381E080934A03DE
:105370009AC08B3009F48FC08E3009F093C08091B1
:105380003C0382FB222720F991E0922790FB82F9CF
:1053900064C0863109F47FC088F4813109F082C08D
:1053A0000E94FC1D8091B60387FB222720F991E023
:1053B000922790FB87F98093B6036DC0893109F479
:1053C0006AC08B3109F06EC080913C0381FB2227BB
:1053D00020F991E0922790FB81F93FC0883309F4CE
:1053E0005AC050F4893209F458C0853309F455C0C5
:1053F000873209F452C056C0833409F44EC028F4F1
:105400008A3308F44FC0895333C0883409F04AC046
:105410000E94FC1D0FEF13ED20E3015010402040CF
:10542000E1F700C000000E946A2635C080913C036D
:10543000982F9095917090FB80F980933C03911187
:105440002AC0897F877F10C080913C0383FB22277D
:1054500020F991E0922790FB83F980933C039923F4
:10546000D1F080913C03816080933C0314C08D5146
:1054700041E050E060E070E08A019B0104C0000F51
:10548000111F221F331F8A95D2F7C901B8010E944C
:10549000D4210E94FC1D81E006C061E070E080E044
:1054A00090E0F5CF80E01F910F91089580E008957E
:1054B00080E008958E518A3030F4E82FF0E0EF520A
:1054C000FE4F8081089580E00895CF93C82F80918A
:1054D0004A03813079F018F08230E9F185C0E0911B
:1054E0001201F09113018081813169F0823209F05B
:1054F0007DC009C0E0911201F091130180818131DA
:1055000011F0823261F48C2F0E94562A811104C05E
:105510008C2F0E949C291DC081E090E01AC08C2F26
:105520000E94582A811114C0C43179F048F4CB305C
:1055300079F0C03109F05EC082E080934A0308C070
:10554000C93219F0C83321F055C010924A0352C035
:1055500081E0817051C0C93279F108F5C43161F13F
:10556000A0F4C73009F044C01092400384E1809356
:105570001801C09317018CE38093160189E0809392
:10558000150188E28093140133C082EE8C0F8630BF
:1055900078F58C2F0E945A2A8093490329C0CE3473
:1055A000E9F020F4CB3421F56AE013C0C13579F07D
:1055B000C235F1F461E00DC080914903882319F0F0
:1055C0001092490315C081E080934A0315C061E041
:1055D00006C0809149030E94D6280AC06AE08091E3
:1055E00049030E944C2904C010924A0380E004C081
:1055F00081E002C080E0ADCFCF91089580916B0330
:1056000008950F931F93CF93DF9300D01F92CDB7D0
:10561000DEB78C010E94642D823011F0843021F5B8
:1056200084E089831B830A8382E08093E9008FEF03
:105630009091E800815095FD06C095ED9A95F1F79F
:1056400000008111F5CF8091E80085FF0DC040E09A
:1056500050E063E070E0CE0101960E94812D8091C0
:10566000E8008E778093E8000F900F900F90DF9105
:10567000CF911F910F910895CF93DF9300D01F9288
:10568000CDB7DEB72091BC03243031F523E0298368
:10569000805891099B838A8382E08093E9008FEF91
:1056A0009091E800815095FD06C095ED9A95F1F72F
:1056B00000008111F5CF8091E80085FF0DC040E02A
:1056C00050E063E070E0CE0101960E94812D809150
:1056D000E8008E778093E8000F900F900F90DF9195
:1056E000CF910895CF93DF93EC010E94642D823017
:1056F00011F08430F9F482E08093E9009FEF80910B
:10570000E800915085FD06C085ED8A95F1F700000F
:105710009111F5CF8091E80085FF0CC040E050E08A
:1057200066E070E0CE010E94812D8091E8008E77C6
:105730008093E800DF91CF910895CF93DF93EC0140
:105740000E94642D823011F08430D9F580912301BC
:10575000882339F08091B60387FF03C060E282E0BE
:1057600002C068E081E08093E9008FEF9091E8004B
:10577000815095FD06C095ED9A95F1F700008111D5
:10578000F5CF8091E80085FF1CC080912301811135
:1057900005C040E050E068E070E003C070E040E029
:1057A00050E0CE010E94812D8091E8008E77809399
:1057B000E80080E2FE01ABE4B3E001900D928A952F
:1057C000E1F7DF91CF9108958091BB03811109C06A
:1057D0000E94162F0E94732F8091E20084608093B4
:1057E000E20008951092BB030895089508950C9463
:1057F000D42542E061EC81E00E94902E42E261EC0F
:1058000082E00C94902E8091BE03833009F453C043
:1058100030F4813071F0823009F48CC008958A3000
:1058200009F478C08B3009F45EC0893009F09AC061
:1058300020C08091BD03813A09F094C08091E800B6
:10584000877F8093E8008091C1039091C203892BE8
:1058500021F460E28BE493E003C060E080E090E03C
:1058600070E00E94CC2D8091E8008B778093E80057
:1058700008958091BD03813209F074C08091C10305
:105880009091C203029708F06DC08091E800877F75
:105890008093E8008091E80082FD05C08091BC0300
:1058A0008111F8CF5FC08091F10080936B038091EC
:1058B000E8008B7753C08091BD03813A09F052C054
:1058C0008091C1039091C203892B09F04BC0809154
:1058D000E800877F8093E8008091E80080FFFCCF9C
:1058E0008091230136C08091BD038132D9F580912A
:1058F000C1039091C203892BA9F58091E800877FAD
:105900008093E8000E94C52E8091BF0380932301FD
:105910000C94FC1D8091BD03813221F58091E8003B
:10592000877F8093E8000E94C52E8091C0038093FA
:105930006C0308958091BD03813AA1F48091E80041
:10594000877F8093E8008091E80080FFFCCF809102
:105950006C038093F1008091E8008E778093E800DB
:105960000C94C52E089584B7877F84BF0FB6F89432
:10597000A89580916000886180936000109260001B
:105980000FBE80E880936100109261000E940F18A2
:105990000E94162F0E94732F8091E20084608093F2
:1059A000E20078940E9402320E94151889E191E089
:1059B0000E94A2178091BC03853069F40E948C2557
:1059C0008091BA038823B1F30E94BD25882391F307
:1059D0000E946B2DEFCF0E941D180E94A715EACFE1
:1059E0000C94F22C292F332723303105C9F064F4AD
:1059F0002130310581F02230310509F04CC08BE3B4
:105A000090E020E338E04BC02132310521F1223211
:105A1000310589F140C082E190E02BE638E03FC0DB
:105A200099278130910571F02CF4892BA1F5ECE2D6
:105A3000F8E00DC08230910541F0039761F5E6EF83
:105A4000F7E005C0E4E1F8E002C0ECEFF7E0849194
:105A500090E09F0124C06115710541F0613071052E
:105A6000D1F489E090E02BE538E019C089E090E0BE
:105A700022E438E014C06115710541F06130710510
:105A800051F480EC90E02DE738E009C080E490E02C
:105A90002DE339E004C080E090E020E030E0FA013E
:105AA0003183208308950895CF93C82F0E94532DEA
:105AB000C0936D03CF9108958091BC03843011F0A1
:105AC00081E0089582E0089580916D03811102C004
:105AD0000C945C2D089580E189BD82E189BD09B4F3
